{
  "transactions": [
    {
      "hash": "0x74113c757ea8e1a50e390b21427610cfb5a9eb0c8cdaa0d5de7acd7540d707b8",
      "transactionType": "CALL",
      "contractName": null,
      "contractAddress": "0xd5cabc8a781d5d0970208485ea1d35be3c2570ff",
      "function": "postJob(address,uint256,uint256,uint256,uint256)",
      "arguments": [
        "0xB0b51dA95d5D2D4A426a10Bc908F1C8d90ce0403",
        "1000000",
        "3600",
        "500000",
        "0"
      ],
      "transaction": {
        "from": "0xa8b0e2ff2beb101768d7c22f0d7a95cf5b743a88",
        "to": "0xd5cabc8a781d5d0970208485ea1d35be3c2570ff",
        "gas": "0x5a604",
        "value": "0x0",
        "input": "0xe505350a000000000000000000000000b0b51da95d5d2d4a426a10bc908f1c8d90ce040300000000000000000000000000000000000000000000000000000000000f42400000000000000000000000000000000000000000000000000000000000000e10000000000000000000000000000000000000000000000000000000000007a1200000000000000000000000000000000000000000000000000000000000000000",
        "nonce": "0x1f",
        "chainId": "0x4cef52"
      },
      "additionalContracts": [],
      "isFixedGasLimit": false
    },
    {
      "hash": "0x45bd8f5e17488547d4c20b3586f7d9d24f9921999dcb5baf5ad753fa6670b44e",
      "transactionType": "CALL",
      "contractName": null,
      "contractAddress": "0xd5cabc8a781d5d0970208485ea1d35be3c2570ff",
      "function": "postJob(address,uint256,uint256,uint256,uint256)",
      "arguments": [
        "0xBeAF4B67F9499f6BF6a7c6542997E68458092c8A",
        "1000000",
        "7200",
        "500000",
        "500"
      ],
      "transaction": {
        "from": "0xa8b0e2ff2beb101768d7c22f0d7a95cf5b743a88",
        "to": "0xd5cabc8a781d5d0970208485ea1d35be3c2570ff",
        "gas": "0x5b626",
        "value": "0x0",
        "input": "0xe505350a000000000000000000000000beaf4b67f9499f6bf6a7c6542997e68458092c8a00000000000000000000000000000000000000000000000000000000000f42400000000000000000000000000000000000000000000000000000000000001c20000000000000000000000000000000000000000000000000000000000007a12000000000000000000000000000000000000000000000000000000000000001f4",
        "nonce": "0x20",
        "chainId": "0x4cef52"
      },
      "additionalContracts": [],
      "isFixedGasLimit": false
    },
    {
      "hash": "0x26f9816ea9c68cd9e21c62a03ca13b41c94f2e60cd66a1269138b5214e5ab824",
      "transactionType": "CALL",
      "contractName": null,
      "contractAddress": "0xd5cabc8a781d5d0970208485ea1d35be3c2570ff",
      "function": "postJob(address,uint256,uint256,uint256,uint256)",
      "arguments": [
        "0x4a6c75207D74A1D72D2D340163812110d0baCC5D",
        "1000000",
        "10800",
        "500000",
        "1000"
      ],
      "transaction": {
        "from": "0xa8b0e2ff2beb101768d7c22f0d7a95cf5b743a88",
        "to": "0xd5cabc8a781d5d0970208485ea1d35be3c2570ff",
        "gas": "0x5b626",
        "value": "0x0",
        "input": "0xe505350a0000000000000000000000004a6c75207d74a1d72d2d340163812110d0bacc5d00000000000000000000000000000000000000000000000000000000000f42400000000000000000000000000000000000000000000000000000000000002a30000000000000000000000000000000000000000000000000000000000007a12000000000000000000000000000000000000000000000000000000000000003e8",
        "nonce": "0x21",
        "chainId": "0x4cef52"
      },
      "additionalContracts": [],
      "isFixedGasLimit": false
    },
    {
      "hash": "0xf2a63e36bc43e7f2b8c743f5a4bb9175c4efa31b21312bd102e0d65e97153f14",
      "transactionType": "CALL",
      "contractName": null,
      "contractAddress": "0xd5cabc8a781d5d0970208485ea1d35be3c2570ff",
      "function": "postJob(address,uint256,uint256,uint256,uint256)",
      "arguments": [
        "0xba2c4423004EAD5658Eb233c08a769277582aE19",
        "1000000",
        "14400",
        "500000",
        "1500"
      ],
      "transaction": {
        "from": "0xa8b0e2ff2beb101768d7c22f0d7a95cf5b743a88",
        "to": "0xd5cabc8a781d5d0970208485ea1d35be3c2570ff",
        "gas": "0x564da",
        "value": "0x0",
        "input": "0xe505350a000000000000000000000000ba2c4423004ead5658eb233c08a769277582ae1900000000000000000000000000000000000000000000000000000000000f42400000000000000000000000000000000000000000000000000000000000003840000000000000000000000000000000000000000000000000000000000007a12000000000000000000000000000000000000000000000000000000000000005dc",
        "nonce": "0x22",
        "chainId": "0x4cef52"
      },
      "additionalContracts": [],
      "isFixedGasLimit": false
    },
    {
      "hash": "0x75c401f36eb22a48cbd51bfe6f8d9ff3df0887c2a9565af87ef8a8e6715c51da",
      "transactionType": "CALL",
      "contractName": null,
      "contractAddress": "0xd5cabc8a781d5d0970208485ea1d35be3c2570ff",
      "function": "postJob(address,uint256,uint256,uint256,uint256)",
      "arguments": [
        "0xf4bBc8942872eCc6D96f92f4708c778082dAad0C",
        "1000000",
        "18000",
        "500000",
        "2000"
      ],
      "transaction": {
        "from": "0xa8b0e2ff2beb101768d7c22f0d7a95cf5b743a88",
        "to": "0xd5cabc8a781d5d0970208485ea1d35be3c2570ff",
        "gas": "0x5b626",
        "value": "0x0",
        "input": "0xe505350a000000000000000000000000f4bbc8942872ecc6d96f92f4708c778082daad0c00000000000000000000000000000000000000000000000000000000000f42400000000000000000000000000000000000000000000000000000000000004650000000000000000000000000000000000000000000000000000000000007a12000000000000000000000000000000000000000000000000000000000000007d0",
        "nonce": "0x23",
        "chainId": "0x4cef52"
      },
      "additionalContracts": [],
      "isFixedGasLimit": false
    },
    {
      "hash": "0xc755ad14c2e69ac3a975c37d2792016e89ed31b797a08b7cf2768e623f9c35c7",
      "transactionType": "CALL",
      "contractName": null,
      "contractAddress": "0xd5cabc8a781d5d0970208485ea1d35be3c2570ff",
      "function": "postJob(address,uint256,uint256,uint256,uint256)",
      "arguments": [
        "0x3347C1F4d129678Cf1e997034abB59465A94CD5C",
        "1000000",
        "21600",
        "500000",
        "2500"
      ],
      "transaction": {
        "from": "0xa8b0e2ff2beb101768d7c22f0d7a95cf5b743a88",
        "to": "0xd5cabc8a781d5d0970208485ea1d35be3c2570ff",
        "gas": "0x5b626",
        "value": "0x0",
        "input": "0xe505350a0000000000000000000000003347c1f4d129678cf1e997034abb59465a94cd5c00000000000000000000000000000000000000000000000000000000000f42400000000000000000000000000000000000000000000000000000000000005460000000000000000000000000000000000000000000000000000000000007a12000000000000000000000000000000000000000000000000000000000000009c4",
        "nonce": "0x24",
        "chainId": "0x4cef52"
      },
      "additionalContracts": [],
      "isFixedGasLimit": false
    }
  ],
  "receipts": [
    {
      "type": "0x2",
      "status": "0x1",
      "cumulativeGasUsed": "0x2c3bcb",
      "logs": [
        {
          "address": "0xd5cabc8a781d5d0970208485ea1d35be3c2570ff",
          "topics": [
            "0x3844e1a3dc1ebdaa64ba3f328b0843118ca60f50a2bff71e3fbbc5a2c55f0ed4",
            "0x0000000000000000000000000000000000000000000000000000000000000001",
            "0x000000000000000000000000a8b0e2ff2beb101768d7c22f0d7a95cf5b743a88",
            "0x000000000000000000000000b0b51da95d5d2d4a426a10bc908f1c8d90ce0403"
          ],
          "data": "0x000000000000000000000000000000000000000000000000000000000007a120",
          "blockHash": "0x7389586b0c6458812ca5aed377b9e3996296d04e736e2d6a24f06ee0b76c9f13",
          "blockNumber": "0x28033b2",
          "blockTimestamp": "0x6a041f92",
          "transactionHash": "0x45bd8f5e17488547d4c20b3586f7d9d24f9921999dcb5baf5ad753fa6670b44e",
          "transactionIndex": "0x1a",
          "logIndex": "0x6d",
          "removed": false
        }
      ],
      "logsBloom": "0x00000000000000000000000000000000000000000000000000000000000000000000000000800000000000000000000000000020000000000000000000040000000000000000000000000000000000000000000000040000000000000000000000000000000000000000000008000000000000000000000000000000000000000000000100000000000000000000800000800000000000000000000000000800000000000000000000000000000000000000000000000000000000000000000200000000000000000000000000000000000000000008400000000081000040000000000000000000000000000000000000000000000000000000000000000000",
      "transactionHash": "0x45bd8f5e17488547d4c20b3586f7d9d24f9921999dcb5baf5ad753fa6670b44e",
      "transactionIndex": "0x1a",
      "blockHash": "0x7389586b0c6458812ca5aed377b9e3996296d04e736e2d6a24f06ee0b76c9f13",
      "blockNumber": "0x28033b2",
      "gasUsed": "0x3dcbb",
      "effectiveGasPrice": "0x4a8270a40",
      "from": "0xa8b0e2ff2beb101768d7c22f0d7a95cf5b743a88",
      "to": "0xd5cabc8a781d5d0970208485ea1d35be3c2570ff",
      "contractAddress": null
    },
    {
      "type": "0x2",
      "status": "0x1",
      "cumulativeGasUsed": "0x30238e",
      "logs": [
        {
          "address": "0xd5cabc8a781d5d0970208485ea1d35be3c2570ff",
          "topics": [
            "0x3844e1a3dc1ebdaa64ba3f328b0843118ca60f50a2bff71e3fbbc5a2c55f0ed4",
            "0x0000000000000000000000000000000000000000000000000000000000000002",
            "0x000000000000000000000000a8b0e2ff2beb101768d7c22f0d7a95cf5b743a88",
            "0x000000000000000000000000beaf4b67f9499f6bf6a7c6542997e68458092c8a"
          ],
          "data": "0x000000000000000000000000000000000000000000000000000000000007a120",
          "blockHash": "0x7389586b0c6458812ca5aed377b9e3996296d04e736e2d6a24f06ee0b76c9f13",
          "blockNumber": "0x28033b2",
          "blockTimestamp": "0x6a041f92",
          "transactionHash": "0x26f9816ea9c68cd9e21c62a03ca13b41c94f2e60cd66a1269138b5214e5ab824",
          "transactionIndex": "0x1b",
          "logIndex": "0x6e",
          "removed": false
        }
      ],
      "logsBloom": "0x04000000000000000000000000000000000000000000000000000000000000000000000000800000000000000000000000000020000000000000000000000000000000000020002000000000000000000000000000000000000000000000000000000000000000000000000008000000000000000000000000000000000000000000000000000000000000000000800000800004000000000000000000000800000000000000000000000100000000000000000000000000000000000000000000000000000000000000000000000000000000000008400000000080000000000000000000000000000000000000000000000000008000000000000000000000",
      "transactionHash": "0x26f9816ea9c68cd9e21c62a03ca13b41c94f2e60cd66a1269138b5214e5ab824",
      "transactionIndex": "0x1b",
      "blockHash": "0x7389586b0c6458812ca5aed377b9e3996296d04e736e2d6a24f06ee0b76c9f13",
      "blockNumber": "0x28033b2",
      "gasUsed": "0x3e7c3",
      "effectiveGasPrice": "0x4a8270a40",
      "from": "0xa8b0e2ff2beb101768d7c22f0d7a95cf5b743a88",
      "to": "0xd5cabc8a781d5d0970208485ea1d35be3c2570ff",
      "contractAddress": null
    },
    {
      "type": "0x2",
      "status": "0x1",
      "cumulativeGasUsed": "0x340b51",
      "logs": [
        {
          "address": "0xd5cabc8a781d5d0970208485ea1d35be3c2570ff",
          "topics": [
            "0x3844e1a3dc1ebdaa64ba3f328b0843118ca60f50a2bff71e3fbbc5a2c55f0ed4",
            "0x0000000000000000000000000000000000000000000000000000000000000003",
            "0x000000000000000000000000a8b0e2ff2beb101768d7c22f0d7a95cf5b743a88",
            "0x0000000000000000000000004a6c75207d74a1d72d2d340163812110d0bacc5d"
          ],
          "data": "0x000000000000000000000000000000000000000000000000000000000007a120",
          "blockHash": "0x7389586b0c6458812ca5aed377b9e3996296d04e736e2d6a24f06ee0b76c9f13",
          "blockNumber": "0x28033b2",
          "blockTimestamp": "0x6a041f92",
          "transactionHash": "0xf2a63e36bc43e7f2b8c743f5a4bb9175c4efa31b21312bd102e0d65e97153f14",
          "transactionIndex": "0x1c",
          "logIndex": "0x6f",
          "removed": false
        }
      ],
      "logsBloom": "0x00000000000000000000000000000000000000000000000000000000000000000000000000800002000000000000000000000020020000000000000000800000000000000000000000000000000000000000000000000000000000000000000000000000000000000000000008000000000000000000000000000000000000000000000000000000000000000000800000800000000000000000000000000800000000000000000000000000000000000000000000800000000000000000400000000000000000000000000000000000000000000008400000000080000000000000000000000000000000000000000000000000000000000010000000000000",
      "transactionHash": "0xf2a63e36bc43e7f2b8c743f5a4bb9175c4efa31b21312bd102e0d65e97153f14",
      "transactionIndex": "0x1c",
      "blockHash": "0x7389586b0c6458812ca5aed377b9e3996296d04e736e2d6a24f06ee0b76c9f13",
      "blockNumber": "0x28033b2",
      "gasUsed": "0x3e7c3",
      "effectiveGasPrice": "0x4a8270a40",
      "from": "0xa8b0e2ff2beb101768d7c22f0d7a95cf5b743a88",
      "to": "0xd5cabc8a781d5d0970208485ea1d35be3c2570ff",
      "contractAddress": null
    },
    {
      "type": "0x2",
      "status": "0x1",
      "cumulativeGasUsed": "0x37f308",
      "logs": [
        {
          "address": "0xd5cabc8a781d5d0970208485ea1d35be3c2570ff",
          "topics": [
            "0x3844e1a3dc1ebdaa64ba3f328b0843118ca60f50a2bff71e3fbbc5a2c55f0ed4",
            "0x0000000000000000000000000000000000000000000000000000000000000004",
            "0x000000000000000000000000a8b0e2ff2beb101768d7c22f0d7a95cf5b743a88",
            "0x000000000000000000000000ba2c4423004ead5658eb233c08a769277582ae19"
          ],
          "data": "0x000000000000000000000000000000000000000000000000000000000007a120",
          "blockHash": "0x7389586b0c6458812ca5aed377b9e3996296d04e736e2d6a24f06ee0b76c9f13",
          "blockNumber": "0x28033b2",
          "blockTimestamp": "0x6a041f92",
          "transactionHash": "0x74113c757ea8e1a50e390b21427610cfb5a9eb0c8cdaa0d5de7acd7540d707b8",
          "transactionIndex": "0x1d",
          "logIndex": "0x70",
          "removed": false
        }
      ],
      "logsBloom": "0x00000000000000000000000000000000000000000000000000000000000000000000000000800000000000000000000000000020000000000400000000000000000000000000000000000000000000000000000000000000000000000000000008000000000000000000000008000000000800000000000000000000000000000000000000000000000000000000800000800000000000000000000000000800000000000000000000000000000000000000000000000000002000000000000000000000000000000000000000000000000000008008400000020080000000000000000000000000000000000000000000000000000000000000000000000000",
      "transactionHash": "0x74113c757ea8e1a50e390b21427610cfb5a9eb0c8cdaa0d5de7acd7540d707b8",
      "transactionIndex": "0x1d",
      "blockHash": "0x7389586b0c6458812ca5aed377b9e3996296d04e736e2d6a24f06ee0b76c9f13",
      "blockNumber": "0x28033b2",
      "gasUsed": "0x3e7b7",
      "effectiveGasPrice": "0x4a8270a40",
      "from": "0xa8b0e2ff2beb101768d7c22f0d7a95cf5b743a88",
      "to": "0xd5cabc8a781d5d0970208485ea1d35be3c2570ff",
      "contractAddress": null
    },
    {
      "type": "0x2",
      "status": "0x1",
      "cumulativeGasUsed": "0x3c928b",
      "logs": [
        {
          "address": "0xd5cabc8a781d5d0970208485ea1d35be3c2570ff",
          "topics": [
            "0x3844e1a3dc1ebdaa64ba3f328b0843118ca60f50a2bff71e3fbbc5a2c55f0ed4",
            "0x0000000000000000000000000000000000000000000000000000000000000005",
            "0x000000000000000000000000a8b0e2ff2beb101768d7c22f0d7a95cf5b743a88",
            "0x000000000000000000000000f4bbc8942872ecc6d96f92f4708c778082daad0c"
          ],
          "data": "0x000000000000000000000000000000000000000000000000000000000007a120",
          "blockHash": "0x7389586b0c6458812ca5aed377b9e3996296d04e736e2d6a24f06ee0b76c9f13",
          "blockNumber": "0x28033b2",
          "blockTimestamp": "0x6a041f92",
          "transactionHash": "0x75c401f36eb22a48cbd51bfe6f8d9ff3df0887c2a9565af87ef8a8e6715c51da",
          "transactionIndex": "0x20",
          "logIndex": "0x71",
          "removed": false
        }
      ],
      "logsBloom": "0x00000000000000000000000000000000000000000000000000000000000000000000000000800000000000000000000000000020000000000000000000000000000010000000000000000000000000000000000000000000000000000000000000000000000000000000000008008020000000000000000000000000000000000000000000000000000000000000801000800800000000000000000000000800000000000000000000000000000000000000000000000000000000000000000001000000000000000000000000000000000000000008400000000080000000000000000000000000000000000000000000000000000000000000000000000000",
      "transactionHash": "0x75c401f36eb22a48cbd51bfe6f8d9ff3df0887c2a9565af87ef8a8e6715c51da",
      "transactionIndex": "0x20",
      "blockHash": "0x7389586b0c6458812ca5aed377b9e3996296d04e736e2d6a24f06ee0b76c9f13",
      "blockNumber": "0x28033b2",
      "gasUsed": "0x3e7c3",
      "effectiveGasPrice": "0x4a8270a40",
      "from": "0xa8b0e2ff2beb101768d7c22f0d7a95cf5b743a88",
      "to": "0xd5cabc8a781d5d0970208485ea1d35be3c2570ff",
      "contractAddress": null
    },
    {
      "type": "0x2",
      "status": "0x1",
      "cumulativeGasUsed": "0x407a4e",
      "logs": [
        {
          "address": "0xd5cabc8a781d5d0970208485ea1d35be3c2570ff",
          "topics": [
            "0x3844e1a3dc1ebdaa64ba3f328b0843118ca60f50a2bff71e3fbbc5a2c55f0ed4",
            "0x0000000000000000000000000000000000000000000000000000000000000006",
            "0x000000000000000000000000a8b0e2ff2beb101768d7c22f0d7a95cf5b743a88",
            "0x0000000000000000000000003347c1f4d129678cf1e997034abb59465a94cd5c"
          ],
          "data": "0x000000000000000000000000000000000000000000000000000000000007a120",
          "blockHash": "0x7389586b0c6458812ca5aed377b9e3996296d04e736e2d6a24f06ee0b76c9f13",
          "blockNumber": "0x28033b2",
          "blockTimestamp": "0x6a041f92",
          "transactionHash": "0xc755ad14c2e69ac3a975c37d2792016e89ed31b797a08b7cf2768e623f9c35c7",
          "transactionIndex": "0x21",
          "logIndex": "0x72",
          "removed": false
        }
      ],
      "logsBloom": "0x00000000000000000000000000000000000000000000000000000000000000000000000000800000000000000000000000000020000400000000000000000000000000000000000000000000020000000000000000000000000000000000000010000000000000000000000008000000000000000000000000000000000000000000000400000000000000000000800000800000000000000080000000000800000000000000000000000000000000000000000000000000000000080000000000000000000000000000000000000000000000000008400000000080000000000000000000000000000000000000000000000000000000000000000000000000",
      "transactionHash": "0xc755ad14c2e69ac3a975c37d2792016e89ed31b797a08b7cf2768e623f9c35c7",
      "transactionIndex": "0x21",
      "blockHash": "0x7389586b0c6458812ca5aed377b9e3996296d04e736e2d6a24f06ee0b76c9f13",
      "blockNumber": "0x28033b2",
      "gasUsed": "0x3e7c3",
      "effectiveGasPrice": "0x4a8270a40",
      "from": "0xa8b0e2ff2beb101768d7c22f0d7a95cf5b743a88",
      "to": "0xd5cabc8a781d5d0970208485ea1d35be3c2570ff",
      "contractAddress": null
    }
  ],
  "libraries": [],
  "pending": [],
  "returns": {},
  "timestamp": 1778655124356,
  "chain": 5042002,
  "commit": "b8cd8c7"
}